:060000000A128A110E280D
:10000800FE00030EF4000408F5000A08F6000A12C0
:100018008A111A2D0A128A1111288317BB30FD0084
:100028000730FE001C30FF00903084000A128A114D
:10003800B4270A128A118313CB30FD000630FE0064
:10004800F130FF00A03084000A128A11B4270A1286
:100058008A115A30FD000630FE00B730FF0020300C
:1000680084000A128A11B4270A128A11DA01DB0104
:10007800DC01DD01DE01DF01E001E101E201E30174
:10008800E401E501E601F701F801F901FA01FB01D4
:1000980083010A128A1150287030831603138F04C3
:1000A8000F14831603178901081488140815881576
:1000B800FF30831603138500880189013F308600CD
:1000C80081131514951415158312031385018801DE
:1000D8008901E301E201E101E601E501E401E00152
:1000E8001F083F3980389F001F11831603139F1282
:1000F8001F129F13831203131F140C308312031350
:10010800EE00EE0B85280000831603130715FA305E
:1001180092003F308312031397051708F0390C3803
:1001280097000F309500CF30970583160313871477
:10013800831203131D08F0390C389D000F309B0003
:100148009D128C100330920412158C1CAC28AD281B
:10015800A9288C10831603130711871081128111A7
:10016800011181100110E4308312031381000B1177
:1001780010149010901090161016FF308F00063053
:100188008E000C1083160313181218158316031704
:100198008715CF308316031399009A01831203132E
:1001A80098171816831603139816831203130C1343
:1001B800831603130C170B178B178B160C1483124B
:1001C80003139F145A03031DEA28EB2857298C1E92
:1001D800EE28EF2857293B29103066020318F52826
:1001E800F628FA286608033EE60057291230E6008A
:1001F800572904306602031C0229032907296608C7
:10020800FD3EE6005729E60157291030650203181C
:100218000E290F2913296508033EE50057291230D6
:10022800E500572904306502031C1B291C292029D5
:100238006508FD3EE5005729E5015729103064029D
:100248000318272928292C296408033EE400572984
:100258001230E400572904306402031C342935297C
:1002680039296408FD3EE4005729E40157291A0892
:10027800EE00EF016F08003A0319432957296E0869
:10028800613A03191629103A0319FD28023A03198D
:100298000929043A0319F0280F3A03192229023AC6
:1002A80003192F29572906185A295B2962295A0840
:1002B800031D5F2960296229DE01DE0A8618652987
:1002C80066296D295A08031D6A296B296D29DD01E4
:1002D800DD0A0619702971297329DC01DC0A061C5C
:1002E80076297729AD2A5E03031D7B297C29AD2A4F
:1002F8005A08031D80298129AD2A932A2508E70079
:1003080015080A128A116E270A128A11831203131A
:100318002008E70017080A128A116E270A128A11A4
:10032800831203133408E70066080A128A116E273D
:100338000A128A11831203132F08E70065080A12AC
:100348008A116E270A128A11831203132A08E700FA
:1003580064080A128A116E270A128A11831203137B
:10036800DF01DF0A88150812881208138813AC2ADF
:100378002608E70015080A128A116E270A128A1140
:10038800831203132108E70017080A128A116E273F
:100398000A128A11831203133508E70066080A1245
:1003A8008A116E270A128A11831203133008E70094
:1003B80065080A128A116E270A128A11831203131A
:1003C8002B08E70064080A128A116E270A128A119C
:1003D800023083120313DF000816AC2A2708E7004F
:1003E80015080A128A116E270A128A11831203133A
:1003F8002208E70017080A128A116E270A128A11C2
:10040800831203133608E70066080A128A116E275A
:100418000A128A11831203133108E70065080A12C9
:100428008A116E270A128A11831203132C08E70017
:1004380064080A128A116E270A128A11033083127D
:100448000313DF008816AC2A2808E70015080A12EB
:100458008A116E270A128A11831203132308E700F0
:1004680017080A128A116E270A128A1183120313B7
:100478003708E70066080A128A116E270A128A11DD
:10048800831203133208E70065080A128A116E27DF
:100498000A128A11831203132D08E70064080A124E
:1004A8008A116E270A128A11043083120313DF009F
:1004B8000817AC2A2908E70015080A128A116E27BE
:1004C8000A128A11831203132408E70017080A1274
:1004D8008A116E270A128A11831203133808E7005B
:1004E80066080A128A116E270A128A1183120313E8
:1004F8003308E70065080A128A116E270A128A1162
:10050800831203132E08E70064080A128A116E2763
:100518000A128A1183120313DF018817AC2A5F08B5
:10052800EE00EF016F08003A03199B2AAC2A6E0807
:10053800003A03198229013A0319BC29033A03191D
:10054800F229013A0319282A073A03195E2AAC2A24
:10055800DE01861CB02AB12AC32A5D03031DB52A11
:10056800B62AC32A5A08031DBA2ABB2AC32A0A1262
:100578008A112C230A128A1183120313DD01061D26
:10058800C62AC72AE6285C03031DCB2ACC2AE628FC
:100598005A03031DD02AD12AEF2ADA0109100C1EAA
:1005A800D62AD72AD92A0D3099000D308312031381
:1005B800EF00FB30EE00EE0BDF2AEF0BDF2A3930BD
:1005C80083120313E8000030E9000A128A11472752
:1005D8000A128A11252BDA01DA0A0C1EF42AF52AE6
:1005E800F72A0D3099000D3083120313EF00FB300A
:1005F800EE00EE0BFD2AEF0BFD2A4C30831203139D
:10060800E8000030E9000A128A1147270A128A1105
:10061800A03083120313E8000030E9000A128A119F
:1006280047270A128A11903083120313E800013019
:10063800E9000A128A1147270A128A118312031342
:10064800091483120313DC01E6280A128A110E2802
:1006580083120313DF01DB01DB0A112D25080A12BF
:100668008A1191270A128A11831203139500200810
:100678000A128A1191270A128A1120398312031348
:10068800EB00EB0EEB0D17086B06DF396B069700D6
:1006980020080A128A1191270A128A111039831226
:1006A8000313EB00EB0E17086B06EF396B06970088
:1006B80034080A128A1191270A128A118312031325
:1006C800E6002F080A128A1191270A128A1183124A
:1006D8000313E5002A080A128A1191270A128A11BF
:1006E80083120313E400881508128812081388136C
:1006F800023083120313ED000430EC00B930EB0034
:10070800EB0B842BEC0B842BED0B842B8B2B8312A4
:100718000313DF01DF0A112D26080A128A11912717
:100728000A128A1183120313950021080A128A11EA
:1007380091270A128A11203983120313EB00EB0E5A
:10074800EB0D17086B06DF396B06970021080A12B4
:100758008A1191270A128A11103983120313EB00A8
:10076800EB0E17086B06EF396B06970035080A126F
:100778008A1191270A128A1183120313E60030089E
:100788000A128A1191270A128A1183120313E500AB
:100798002B080A128A1191270A128A11831203134D
:1007A800E4000816023083120313ED000430EC0055
:1007B800B930EB00EB0BDE2BEC0BDE2BED0BDE2B5D
:1007C800E52B023083120313DF00112D27080A12CC
:1007D8008A1191270A128A1183120313950022089D
:1007E8000A128A1191270A128A11203983120313D7
:1007F800EB00EB0EEB0D17086B06DF396B06970065
:1008080022080A128A1191270A128A1110398312B2
:100818000313EB00EB0E17086B06EF396B06970016
:1008280036080A128A1191270A128A1183120313B1
:10083800E60031080A128A1191270A128A118312D6
:100848000313E5002C080A128A1191270A128A114B
:1008580083120313E4008816023083120313ED0099
:100868000430EC00B930EB00EB0B382CEC0B382CD7
:10087800ED0B382C3F2C033083120313DF00112DAE
:1008880028080A128A1191270A128A11831203135F
:10089800950023080A128A1191270A128A11203911
:1008A80083120313EB00EB0EEB0D17086B06DF3911
:1008B8006B06970023080A128A1191270A128A11D7
:1008C800103983120313EB00EB0E17086B06EF3990
:1008D8006B06970037080A128A1191270A128A11A3
:1008E80083120313E60032080A128A1191270A12AA
:1008F8008A1183120313E5002D080A128A11912721
:100908000A128A1183120313E400081702308312B3
:100918000313ED000430EC00B930EB00EB0B922C24
:10092800EC0B922CED0B922C992C043083120313B0
:10093800DF00112D29080A128A1191270A128A113B
:1009480083120313950024080A128A1191270A12A8
:100958008A11203983120313EB00EB0EEB0D1708F5
:100968006B06DF396B06970024080A128A11912753
:100978000A128A11103983120313EB00EB0E1708C1
:100988006B06EF396B06970038080A128A1191270F
:100998000A128A1183120313E60033080A128A1115
:1009A80091270A128A1183120313E5002E080A12EE
:1009B8008A1191270A128A1183120313E4008817F7
:1009C800023083120313ED000430EC00B930EB0061
:1009D800EB0BEC2CEC0BEC2CED0BEC2CF32C05308E
:1009E80083120313DF00112D5F08EB00EC016C0884
:1009F800003A0319002D112D6B08003A0319322B08
:100A0800013A0319902B033A0319EA2B013A031907
:100A1800442C073A03199E2C112D05305F02031C44
:100A2800162D172DF82CDB01DF01080083120313A4
:100A38000C1F1F2D202DB82D5B08031D242D252DDF
:100A4800B02D5A08031D292D2A2DB02D972D1E08CB
:100A58000A128A1120260A128A1183120313E60049
:100A68001F08C33904389F00B02D1E080A128A11C6
:100A780020260A128A1183120313E5001F08C339BE
:100A880008389F00B02D1E08F1000310710C7C3E41
:100A98009B001E080139F100F10EF10D1D087106C9
:100AA800DF3971069D00831603131E08F100073015
:100AB8000310F10CFF3E031D5C2D7108F200F20ECD
:100AC800831203131D087206EF3972069D001F0872
:100AD800C3390C389F00B02D1E08F1000310710CAB
:100AE8007C3E95001E080139F100F10EF10D170842
:100AF8007106DF3971069700831603131E08F1008B
:100B080007300310F10CFF3E031D852D7108F2001C
:100B1800F20E8312031317087206EF397206970054
:100B2800C3309F05B02D1F0CF100710C0F39F20076
:100B3800F3017308003A0319A22DB02D7208003A88
:100B480003192B2D013A0319392D033A0319472D9F
:100B5800013A0319702DB02D0D30F100F10BB22DB3
:100B6800831203130C139F140B1DBB2DBC2DF52DE5
:100B7800E430810063086606031DC32DC42DC72D0C
:100B88000810E301FB0162086506031DCC2DCD2D7D
:100B9800D02D8810E201FA0161086406031DD52DE5
:100BA800D62DD92D0811E101F9017B03031DDD2D97
:100BB800DE2DE22D0130F1007108E3077A03031DF1
:100BC800E62DE72DEB2D0130F1007108E2077903DE
:100BD800031DEF2DF02DF42D0130F1007108E10710
:100BE8000B110C1CF82DF92D172EFF308F00063035
:100BF8008E006003031D012E022E082EFB01FB0A46
:100C0800FA01FA0AF901F90A14306006031D0D2EDB
:100C18000E2E122EE0010814881408150130F10078
:100C28007108E0070C1076088A0075088400740EB5
:100C38008300FE0E7E0E0900F000133070020318C8
:100C4800262E272E292E0230B62E283070020318A1
:100C58002E2E2F2E372E13307002031C342E352ED5
:100C6800372E0330B62E3D30700203183C2E3D2E31
:100C7800452E28307002031C422E432E452E053087
:100C8800B62E5230700203184A2E4B2E532E3D308A
:100C98007002031C502E512E532E0630B62E67308C
:100CA80070020318582E592E612E52307002031C00
:100CB8005E2E5F2E612E0730B62E83307002031829
:100CC800662E672E6F2E67307002031C6C2E6D2EF9
:100CD8006F2E0830B62E983070020318742E752EB9
:100CE8007D2E83307002031C7A2E7B2E7D2E0930D8
:100CF800B62EAD3070020318822E832E8B2E9830BC
:100D08007002031C882E892E8B2E0A30B62EC23014
:100D180070020318902E912E992EAD307002031C8C
:100D2800962E972E992E0B30B62ED73070020318B8
:100D38009E2E9F2EA72EC2307002031CA42EA52E15
:100D4800A72E0C30B62EEC3070020318AC2EAD2E48
:100D5800B52ED7307002031CB22EB32EB52E0E302E
:100D6800B62E0F300800183419341A341B341C34CA
:100D7800133414341534163417340E340F34103435
:100D88001134123409340A340B340C340D3404345D
:100D980005340634073408345534543449344C3453
:100DA80049345A344134433449344F344E3420346E
:100DB8004D3441344E34553441344C340034493484
:100DC8006E34733474347234753463346334693410
:100DD8006F346E346534733400345334653472348C
:100DE80076346F34203475346E346F343A342034AA
:100DF800713420342D342D343E34203469347A341F
:100E0800713475346934653472346434613420342F
:100E180020342034773420342D342D343E3420349B
:100E2800643465347234653463346834613400344E
:100E380053346534723476346F34203464346F3408
:100E480073343A342034613420342D342D343E3414
:100E5800203469347A3471347534693465347234C1
:100E680064346134203420342034733420342D34F5
:100E78002D343E342034643465347234653463343C
:100E88006834613400345B2F680884008317691C58
:100E9800831300080A128A11C3270A128A11013023
:100EA80083120313E8070318E90A0030E9078312DD
:100EB8000313680884008317691C83130008031D43
:100EC800662F672F482F0C1E6A2F6B2F6D2F0D3042
:100ED8009900080083120313E800670883120317B8
:100EE8008D00831203136808831203178C0083167E
:100EF80003178C130C158B1355308D00AA308D00F9
:100F08008C14831203130D1E8A2F8B2F852F0D121D
:100F18008B17831603170C11080083120313E900BB
:100F28006908831203178D00831603178C130C149A
:100F3800831203170C0883120313EA003430831258
:100F48000313E800F130E700E70BA82FE80BA82F00
:100F5800831203136A0808007E088A007F0882004B
:100F68000A128A11B0270A128A118000840A04081A
:100F78007D0603190034FF0A0319FE0AB42F8312F1
:100F88000313E70083160313981CCB2FCC2FC62F0F
:100F9800831203130C1ED12FD22FD42F6708990068
:020FA80008003F
:08400000FF3FFF3FFF3FFF3FC0
:04400E00D420FF3F7C
:00000001FF
